:040000003DEF00F0E0
:10000800FACF01F0FBCF02F0E9CF03F0EACF04F01A
:10001800E1CF05F0E2CF06F0D9CF07F0DACF08F04C
:10002800F3CF09F0F4CF0AF0F6CF0BF0F7CF0CF0CE
:10003800F8CF0DF0F5CF0EF00EC0F5FF0DC0F8FFAC
:100048000CC0F7FF0BC0F6FF0AC0F4FF09C0F3FFAE
:1000580008C0DAFF07C0D9FF06C0E2FF05C0E1FF0C
:1000680004C0EAFF03C0E9FF02C0FBFF01C0FAFFBA
:100078001100FCEF00F07A0ED36E0F010F013E87DE
:10008800000E936E000E816E000E0F010F01386F87
:10009800000E0F010F01396F000E0F010F013A6FAB
:1000A800C29075EC01F0800EBE6E140E676E246E61
:1000B800140E216E2450256E020E226E25503AEC45
:1000C80001F0246E4A0E1B6E2450A2EC01F0246E3F
:1000D8006F0E1B6E2450A2EC01F0246E680E1B6E8E
:1000E8002450A2EC01F0246E6E0E1B6E2450A2EC7C
:1000F80001F0246E000E266E245000D08A80A30ED4
:10010800246E550EE82EFED7242EFCD726507F0AE3
:10011800D8A401D001D005D0246E000E266E24503C
:1001280000D0262A26C0BEFF8A90A30E246E550E44
:10013800E82EFED7242EFCD7E1D73DEF00F0010EC4
:100148001F6401D001D002D0298600D01FC02BF037
:10015800110E206E3A0EE82EFED7202EFCD700F0A6
:1001680027C012F014EC01F0A30E206E550EE82EF5
:10017800FED7202EFCD7206E300E166E2050B4EC21
:1001880001F0FA0E00F0E82EFDD7206E300E166E44
:100198002050B4EC01F0FA0E00F0E82EFDD7206EE6
:1001A800300E166E2050B4EC01F0530EE82EFED738
:1001B80000F0206E200E166E2050B4EC01F029508D
:1001C80020091B6EABEC01F0206E040E286E205047
:1001D800BDEC01F067EC01F0206E020E2A6E205093
:1001E8002A5004091B6EABEC01F04BEC01F0120035
:1001F8002B6A2A6A296A286A276AA20EF66E030EF3
:10020800F76E000EF86E00EE2CF010EE04F0090008
:10021800F5CFEEFFE550E150FAE100013FEF00F0C5
:10022800CDEC01F0136E270E0F6E1350146E000EF6
:10023800106E145098EC01F0125027100F6EC4EC99
:1002480001F0C9EC01F012001750F00B196E1738C5
:10025800F00BF00B1A6E19501810166EB4EC01F072
:100268001A501810166EB4EC01F0120021C030F0CC
:1002780022C031F082EC01F0236E000E296E23506B
:1002880030C01EF031C01FF0A3EC00F012001D6E4C
:10029800020E1B6E1D50ABEC01F0070E1D6E7D0E9D
:1002A800E82EFED71D2EFCD7120001D000D0C55075
:1002B8001F0BD8A401D001D0FAD7C7B401D001D000
:1002C800F6D700D012001D6E010E1B6E1D50ABEC50
:1002D80001F0070E1D6E7D0EE82EFED71D2EFCD7F1
:1002E800120094929494000E826E7E0EBB6E050EE0
:1002F800BA6E3C0EBD6E3C0E666E120094869488F3
:10030800280EC66E000EC56E270EC86EC00EC76ECC
:10031800120015500409126E14EC01F01550FB0B75
:10032800126E14EC01F012000F500F24116E1050D1
:10033800112659EC01F011C0C9FF12001BC017F0BB
:100348001C6E010E186E1C5028EC01F012001BC028
:1003580017F01C6E000E186E1C5028EC01F01200ED
:1003680016C012F014EC01F016C015F08DEC01F077
:1003780012002884285008091B6EABEC01F012000B
:1003880059EC01F00FC0C9FF120059EC01F0C58407
:0E039800120059EC01F0C58012000040145410
:020000040030CA
:06000100281F3C00B58041
:0600080003C003E0034009
:00000001FF
